:020000040800F2
:1000000000200020B9000008C5210008D9210008FF
:1000100000000000000000000000000000000000E0
:10002000000000000000000000000000C5210008E2
:100030000000000000000000C5210008C5210008E4
:10004000C5210008C5210008C5210008C5210008F8
:10005000C5210008C5210008C5210008C5210008E8
:1000600000000000C5210008C5210008C5210008C6
:10007000C5210008C521000800000000DD020008BD
:1000800000000000C5210008000000000000000082
:10009000C521000800000000C5210008C521000896
:1000A000C5210008C5210008C52100082D1700083A
:1000B000DD1C0008C521000802F000F801F0C2FFB5
:1000C000E1235B02180001F089FA62B6C04600F035
:1000D000EAFA024B180001F0F1FBFEE7D0450008F8
:1000E00080B582B000AF7860C0467B685A1E7A60E7
:1000F000002BFAD1C046C046BD4602B080BD80B5D7
:1001000000AF0B4B0B4A5A60094B00229A60084B18
:1001100005221A60C046064B1A6880235B02134012
:10012000F9D0034B00221A60C046BD4680BDC046D0
:1001300010E000E0FF7C000080B582B000AF786086
:1001400001E0FFF7DCFF7B685A1E7A60002BF8D1D4
:10015000C046C046BD4602B080BD80B582B000AF8B
:100160000200FB1D1A70FB1D1B7819000F4802F0DE
:100170008BF9030019000E4802F086F903005A1E9D
:100180000C4B5A600B4B00229A600A4B05221A60F6
:10019000C046084B1A6880235B021340F9D0054B18
:1001A00000221A60C046BD4602B080BD40420F002A
:1001B0000048E80110E000E080B582B000AF786050
:1001C00001E0FFF79CFF7B685A1E7A60002BF8D194
:1001D000C046C046BD4602B080BD80B584B000AF09
:1001E000786072B6C0463B4B3B4A5A60394B3A4A3C
:1001F0009A60384B05221A6007E0364B1A68802354
:100200005B02134001D0002360E0A023DB051A69E4
:1002100080235B001340F0D12E4B00221A602D4B3F
:100220002D4A5A602B4B2C4A9A602A4B05221A60A1
:1002300007E0284B1A6880235B02134001D000239B
:1002400044E0A023DB051A6980235B001340F0D053
:10025000204B00221A601F4B1F4A5A601D4B1E4A3A
:100260009A601C4B05221A600023FB6021E0194BA9
:100270001A6880235B02134001D0002326E0A023EC
:10028000DB051A6980235B001340F0D107E0114BB6
:100290001A6880235B02134001D0002316E0A023DC
:1002A000DB051A6980235B001340F0D0FB68013343
:1002B000FB60FA687B689A42E1DB064B00221A6019
:1002C00062B6C046034B9B68034AD31A1800BD466A
:1002D00004B080BD10E000E0FFFFFF0080B500AF7C
:1002E0008023DB051A698023DB0501218A431A611B
:1002F0003A4B1B685A1C394B1A60394B1A68374BFA
:100300001B689A4208DDA023DB055A69A023DB05A0
:1003100001210A435A6107E0A023DB055A69A023A3
:10032000DB0501218A435A612E4B1A682B4B1B684F
:100330009A4208DDA023DB055A69A023DB050221D0
:100340000A435A6107E0A023DB055A69A023DB05B5
:1003500002218A435A61244B1A68204B1B689A4237
:1003600008DDA023DB055A69A023DB0504210A432D
:100370005A6107E0A023DB055A69A023DB050421AD
:100380008A435A61194B1A68144B1B689A4208DD5C
:10039000A023DB055A69A023DB0508210A435A6123
:1003A00007E0A023DB055A69A023DB0508218A4367
:1003B0005A610A4B1A68FA23DB009A420BDD074B9D
:1003C00000221A60A023DB055A69A023DB05C021A7
:1003D00049010A435A61C046BD4680BD68000020FD
:1003E0006C000020700000207400002078000020C5
:1003F00080B500AFA023DB05012252429A607D4BFD
:10040000DA6A7C4B01210A43DA62A023DB051B6810
:10041000794A1A40A023DB058021C9040A431A60E7
:10042000A023DB055A69A023DB05802189010A434B
:100430005A61A023DB051A68A023DB056F490A4037
:100440001A60A023DB05DA68A023DB0580214902BE
:100450000A43DA60A023DB05DA68A023DB056849DC
:100460000A40DA60634BDA6A624B01210A43DA62BE
:10047000A023DB051B68032293431A00A023DB059E
:1004800001210A431A60A023DB055A68A023DB057B
:1004900001218A435A60A023DB051B680C22934389
:1004A0001A00A023DB0504210A431A60A023DB0500
:1004B0005A68A023DB0502218A435A604D4BDA6A51
:1004C0004C4B01210A43DA62A023DB051B68302272
:1004D00093431A00A023DB0510210A431A60A023CE
:1004E000DB055A68A023DB0504218A435A60A02358
:1004F000DB051B68C02293431A00A023DB054021C3
:100500000A431A60A023DB055A68A023DB050821F3
:100510008A435A60374B9A6B364B01210A439A63E0
:100520008023DB054022FF32DA62364B1A68354BF6
:10053000802109020A431A608023DB051A688023A0
:10054000DB0510210A431A608023DB051A6880232B
:10055000DB0580210A431A608023DB05DA688023EB
:10056000DB0501210A43DA608023DB051A6880235A
:10057000DB0501210A431A6062B6C046A023DB05F1
:10058000012252429A601B4BDA6A1A4B01210A433C
:10059000DA62A023DB051B68174A1A40A023DB059B
:1005A0008021C9040A431A60A023DB055A69A023ED
:1005B000DB05802189010A435A61A023DB051A6803
:1005C000A023DB050D490A401A60A023DB05DA6889
:1005D000A023DB05802149020A43DA60A023DB0562
:1005E000DA68A023DB0506490A40DA60C046BD464A
:1005F00080BDC04600100240FFFFFFF3FFFFFCFF7D
:10060000FFFFFDFF00E100E090B58DB000AF786026
:100610007A68184B1100180002F032FBA023DB05AA
:100620005A69A023DB0514490A405A610A20FFF7E2
:10063000C3FD7B68180001F019FC08243B19272131
:10064000180001F04DFCA023DB055A69A023DB054F
:10065000802189010A435A610A20FFF7ADFD3A194A
:10066000064B1100180002F00BFBC046BD460DB052
:1006700090BDC04694440008FFDFFFFFA04400087F
:1006800080B584B000AF78606420FFF7A6FD03005A
:10069000FB60FA687B68D31ADA179B18534018007E
:1006A000BD4604B080BD90B5A3B000AF0023FB668B
:1006B0000023BB6600237B6601238022BA181360E7
:1006C0000023FB6700233B660023FB65FA239B00A6
:1006D000BB67FA239B00BB6500237B67E34BDA6AA9
:1006E000E24B01210A43DA62A023DB051A68A0234A
:1006F000DB05DF490A401A60A023DB05DA68A02386
:10070000DB05802149020A43DA60A023DB05DA68B1
:10071000A023DB05D7490A40DA60A023DB051B686C
:10072000D54A1A40A023DB05802149000A431A60FC
:10073000A023DB055A68A023DB0510218A435A60F9
:10074000A023DB051B68CD4A1A40A023DB058021CE
:10075000C9000A431A60A023DB055A68A023DB0501
:1007600020218A435A60A023DB051B68C44A1A4033
:10077000A023DB05802149010A431A60A023DB0581
:100780005A68A023DB0540218A435A60FFF730FEF8
:1007900096239B01180001F0FBF9BA4B180002F0F8
:1007A000FBFAFA239B001800FFF706FDB64B180072
:1007B000FFF72AFFB54B1800FFF726FFB44B1800D0
:1007C000FFF722FFB34B1800FFF71EFFB24B1800D4
:1007D000FFF71AFFB14B1800FFF716FFB04B1800D8
:1007E000FFF712FFAF4B1800FFF70EFFAE4B1800DC
:1007F00002F0D2FA01F0BAFB031EFBDD3B1D5021D3
:10080000180001F06DFB3B1D180002F019FA0300FF
:10081000FB653B1D0333180002F012FA03003B6630
:100820003B1D180002F0CCFA0300062B01D000F0AB
:1008300002FCFB6D212B01DD00F0FDFB3B6E212B4B
:1008400001DD00F0F8FBFB6D102B26D13B6E1F2B5A
:1008500023DDBA6F954B1A60954B1A600022954BB9
:100860001A60954B1A60A023DB055A69A023DB05AB
:1008700010218A435A61A023DB055A69A023DB05B6
:1008800020210A435A61A023DB055A69A023DB0516
:1008900040218A435A6100F0CDFBFB6D102B26D11D
:1008A0003B6E002B23D10022804B1A60804B1A60D4
:1008B000BA6F804B1A60804B1A60A023DB055A691F
:1008C000A023DB0510218A435A61A023DB055A6966
:1008D000A023DB0520218A435A61A023DB055A6946
:1008E000A023DB0540210A435A6100F0A3FBFB6D06
:1008F0001F2B33DD3B6E102B30D16C4BBA6F1A605F
:10090000B86F02F04FF96D4A6D4B01F0A9FE02007D
:100910000B001000190002F00FF90200664B1A607C
:100920000022644B1A60624B1A60A023DB055A69EF
:10093000A023DB0510218A435A61A023DB055A69F5
:10094000A023DB0520218A435A61A023DB055A69D5
:10095000A023DB0540218A435A616BE3FB6D002B2A
:1009600025D13B6E102B22D1BA6F524B1A60504BDF
:100970001A600022504B1A604C4B1A60A023DB0512
:100980005A69A023DB0510210A435A61A023DB0525
:100990005A69A023DB0520218A435A61A023DB0585
:1009A0005A69A023DB0540218A435A6142E3FB6D6B
:1009B0001F2B23DD3B6E1F2B20DD3C4BBA6F1A60D3
:1009C000B86F02F0EFF800223E4B01F049FE020042
:1009D0000B001000190002F0AFF80200364B1A604D
:1009E0000022344B1A60324B1A60A023DB055A698F
:1009F000A023DB0510218A435A611BE3FB6D1F2BEB
:100A000066DD3B6E002B63D12B4BBA6F1A60B86F5B
:100A100002F0C8F82C4A2D4B01F022FE02000B0018
:100A20001000190002F088F80200204B1A60002222
:100A3000204B1A601E4B1A60A023DB055A69A023C5
:100A4000DB0510218A435A61A023DB055A69A023E4
:100A5000DB0520218A435A61A023DB055A69A023C4
:100A6000DB0540210A435A61E4E2C046001002401F
:100A7000FFFFFCFFFFFFFDFFFFFCFFFFFFF3FFFF9A
:100A8000FFCFFFFFB0440008C8440008D844000866
:100A9000E4440008F0440008FC440008084500084D
:100AA00014450008204500082C450008700000206F
:100AB0006C000020780000207400002066666666E6
:100AC0006666EE3F0000E03F333333333333E33FBA
:100AD000FB6D002B33D13B6E1F2B30DDC04BBA6F4B
:100AE0001A60B86F02F05EF80022BE4B01F0B8FD4C
:100AF00002000B001000190002F01EF80200BA4BB1
:100B00001A600022B94B1A60B94B1A60A023DB05AA
:100B10005A69A023DB0510210A435A61A023DB0593
:100B20005A69A023DB0520218A435A61A023DB05F3
:100B30005A69A023DB0540218A435A617AE2FB6DA2
:100B4000002B33D13B6E002B30D1A74BBA6F1A600C
:100B5000B86F02F027F80022A24B01F081FD0200DD
:100B60000B001000190001F0E7FF02009C4B1A6017
:100B700000229E4B1A609E4B1A60A023DB055A6927
:100B8000A023DB0510210A435A61A023DB055A6923
:100B9000A023DB0520218A435A61A023DB055A6983
:100BA000A023DB0540218A435A6143E2FB6D102BF1
:100BB00028D13B6E102B25DD3B6E1F2B22DCBA6F3C
:100BC0008B4B1A60884B1A600022854B1A60874B4A
:100BD0001A60A023DB055A69A023DB0510218A4394
:100BE0005A61A023DB055A69A023DB0520210A43B3
:100BF0005A61A023DB055A69A023DB0540218A4303
:100C00005A6117E2FB6D102B35D13B6E0F2B32DC96
:100C10003B6E002B2FDD0022754B1A60724B1A6061
:100C2000B86F01F0BFFF00226E4B01F019FD02000A
:100C30000B001000190001F07FFF0200684B1A60E2
:100C40006A4B1A60A023DB055A69A023DB0510213B
:100C50008A435A61A023DB055A69A023DB052021C2
:100C60008A435A61A023DB055A69A023DB05402192
:100C70000A435A61DEE1FB6D202B25DCFB6D102B56
:100C800022DD3B6E102B1FD1B86F01F08BFF0022CD
:100C9000544B01F0E5FC02000B001000190001F0BC
:100CA0004BFF0200514B1A60514B1A6000224C4B13
:100CB0001A604D4B1A60A023DB055A69A023DB059F
:100CC00010218A435A61B5E1FB6D002B35DDFB6DC8
:100CD0000F2B32DC3B6E102B2FD1B86F01F062FF6F
:100CE0000022404B01F0BCFC02000B001000190078
:100CF00001F022FF02003A4B1A603B4B1A600022BF
:100D00003A4B1A603A4B1A60A023DB055A69A023BC
:100D1000DB0510210A435A61A023DB055A69A02391
:100D2000DB0520218A435A61A023DB055A69A023F1
:100D3000DB0540218A435A617CE1FB6D102B59DDB4
:100D4000FB6D202B56DC3B6E102B53DD3B6E202BB6
:100D500050DCB86F01F026FF0022224B01F080FC2E
:100D600002000B001000190001F0E6FE0200204B0B
:100D70001A60B86F01F016FF00221A4B01F070FCE8
:100D800002000B00100019000022164B01F068FC55
:100D900002000B001000190001F0CEFE0200134B00
:100DA0001A6000220E4B1A600F4B1A60A023DB055D
:100DB0005A69A023DB0510218A435A61A023DB0571
:100DC0005A69A023DB0520210A435A61A023DB05D1
:100DD0005A69A023DB0540218A435A612AE1C046B3
:100DE000780000200000E03F6C000020740000202C
:100DF00070000020FB6D102B56DDFB6D202B53DCAB
:100E00003B6E002B50DD3B6E0F2B4DDCB86F01F0BD
:100E1000C9FE0022CE4B01F023FC02000B001000A3
:100E20001900CC4ACC4B01F01BFC02000B00100057
:100E3000190001F081FE0200C84B1A60B86F01F082
:100E4000B1FE0022C24B01F00BFC02000B001000AF
:100E500019000022BE4B01F003FC02000B00100041
:100E6000190001F069FE0200BD4B1A600022BD4B63
:100E70001A60BD4B1A60A023DB055A69A023DB056D
:100E800010218A435A61A023DB055A69A023DB05A0
:100E900020218A435A61A023DB055A69A023DB0580
:100EA00040210A435A61C5E0FB6D002B4EDDFB6D0E
:100EB0000F2B4BDC3B6E102B48DD3B6E202B45DCB3
:100EC000B86F01F06FFE0022A14B01F0C9FB0200D8
:100ED0000B001000190001F02FFE0200A14B1A6058
:100EE000B86F01F05FFE0022994B01F0B9FB0200E0
:100EF0000B00100019000022954B01F0B1FB02001D
:100F00000B001000190001F017FE0200964B1A604A
:100F10000022924B1A60924B1A60A023DB055A699B
:100F2000A023DB0510210A435A61A023DB055A697F
:100F3000A023DB0520218A435A61A023DB055A69DF
:100F4000A023DB0540218A435A6173E0FB6D002B2F
:100F50004EDDFB6D0F2B4BDC3B6E002B48DD3B6EFB
:100F60000F2B45DCB86F01F01DFE0022784B01F01D
:100F700077FB02000B001000190001F0DDFD0200FC
:100F8000794B1A60B86F01F00DFE0022704B01F032
:100F900067FB02000B001000190000226C4B01F0EF
:100FA0005FFB02000B001000190001F0C5FD0200FC
:100FB0006C4B1A600022694B1A60694B1A60A023BF
:100FC000DB055A69A023DB0510210A435A61A023DF
:100FD000DB055A69A023DB0520218A435A61A0233F
:100FE000DB055A69A023DB0540218A435A6121E0D1
:100FF00000235C4A1360594A1360594A13605A4AE5
:101000001360A023DB055A69A023DB0510210A43E6
:101010005A61A023DB055A69A023DB0520218A43FE
:101020005A61A023DB055A69A023DB0540218A43CE
:101030005A6128E227E24D4A3B1D1100180001F0D9
:10104000B5FE031E57D10520FFF7B6F880243B19E3
:101050001B68012B09D16420FFF7BFF8030084222D
:10106000BA18136000233A1913608423FB181B6815
:101070001800FFF705FB03007B650A20FFF79CF8CB
:101080007A6D3B4B1100180001F0FAFD7B6D282BA7
:1010900005DC384B180000F0E9FEFFF7ABFB7B6D79
:1010A000272B07DD7B6D322B04DC324B180000F060
:1010B000DDFEE8E17B6D312B07DD7B6D642B04DC0D
:1010C0002D4B180000F0D2FEDDE17B6D632B07DDB8
:1010D0007B6DC82B04DC294B180000F0C7FED2E161
:1010E0007B6DC72B01DCFFF785FB254B180000F05B
:1010F000BDFEFFF77FFB234A3B1D1100180001F0E6
:1011000055FE031E40D17B6F002B03D1FA235B00F9
:10111000BB670CE07B6F012B03D1FA239B00BB67FD
:1011200005E07B6F022B02D1FA23DB00BB677B6FEC
:1011300001337B677B6F0321180001F08BFA0B1ED4
:1011400001D0FFF757FB00237B67FFF753FBC04637
:101150000000E03F666666666666EE3F740000204B
:1011600070000020780000206C000020744500080A
:1011700078450008804500088C450008984500081F
:10118000A4450008B0450008C04A3B1D11001800E6
:1011900001F00CFE031E00D063E1BD4B180000F00F
:1011A00065FEBC4B180001F06BFDBB4BBA6F1A60BB
:1011B000B86F01F0F7FCB94AB94B01F051FA0200DF
:1011C0000B001000190001F0B7FC0200B54B1A60CB
:1011D0000022B54B1A60B54B1A60A023DB055A6993
:1011E000A023DB0510218A435A61A023DB055A693D
:1011F000A023DB0520218A435A61A023DB055A691D
:10120000A023DB0540218A435A6100233B678423E6
:10121000FB181B681800FFF733FA03007B657A6D33
:10122000A34B1100180001F02BFD7B6D642B0EDD2C
:1012300000239D4A13609B4A1360974A13609B4AA0
:1012400013600123FB679B4B180000F00FFE012089
:10125000FEF7B2FF3B6F01333B673B6F964A934209
:1012600000DCD4E7C046FB6F012B00D101E18A4BC3
:10127000BA6F1A608B4B00221A6000228A4B1A60E8
:101280008A4B1A60A023DB055A69A023DB051021D5
:101290008A435A6100233B678423FB181B681800AC
:1012A000FFF7EEF903007B657A6D814B11001800A2
:1012B00001F0E6FC7B6D642B0EDD00237A4A13609F
:1012C000784A1360744A1360784A13600123FB67FD
:1012D000784B180000F0CAFD0120FEF76DFF3B6F50
:1012E00001333B673A6FFA231B019A4200DAD3E7D6
:1012F000C046FB6F012B00D1BEE0674BBA6F1A608E
:10130000B86F01F04FFC654A654B01F0A9F9020086
:101310000B001000190001F00FFC0200614B1A6075
:101320000022614B1A60614B1A60A023DB055A69E9
:10133000A023DB0510218A435A61A023DB055A69EB
:10134000A023DB0520218A435A61A023DB055A69CB
:10135000A023DB0540218A435A6100233B67842395
:10136000FB181B681800FFF78BF903007B657A6D8B
:101370004F4B1100180001F083FC7B6D642B0EDDD8
:101380000023494A1360474A1360434A1360474A9F
:1013900013600123FB67474B180000F067FD012035
:1013A000FEF70AFF3B6F01333B673B6F424A9342B4
:1013B00000DCD4E7C046FB6F012B60D0B86F01F0B2
:1013C000F1FB3E4A3E4B01F04BF902000B001000CE
:1013D000190001F0B1FB0200324B1A602E4B0022C3
:1013E0001A600022304B1A60304B1A60A023DB05D4
:1013F0005A69A023DB0510218A435A6100233B6709
:101400008423FB181B681800FFF73AF903007B657B
:101410007A6D274B1100180001F032FC7B6D572BC1
:101420000EDD0023204A13601E4A13601A4A13601F
:101430001E4A13600123FB671E4B180000F016FDC7
:101440000120FEF7B9FE3B6F01333B673A6FFA2389
:101450001B019A4200DAD3E7C046FB6F012B11D083
:101460009FE63A1D174B1100180001F009FCFFF729
:10147000C1F9C046FFF7BEF9C046FFF7BBF9C04649
:10148000FFF7B8F9C046FFF7B5F9C046B445000804
:10149000B8450008BC450008700000201F85EB51CE
:1014A000B81EED3F74000020780000206C00002082
:1014B00078450008C44500088713000085EB51B843
:1014C0001E85EB3FC845000890B585B000AF786039
:1014D0003960184B1B68002B02D101235B4224E0CA
:1014E0000023FB600AE0FB685A1CFA603A68D418D3
:1014F000114B180000F0ADF9030023707B68013B2D
:101500001A00FB68934205D20B4B180000F0CCF98F
:10151000031EE8D1FB68002B06D03A68FB68D3189D
:1015200000221A70FB6800E000231800BD4605B0D9
:1015300090BDC046140100207C00002080B584B01E
:1015400000AF78603960224B1B68002B02D1012369
:101550005B4238E07B683F2B0BDCC0461D4B18001C
:1015600000F0A2F903004022D21A7B689A42F5D318
:1015700002E002235B4226E00023FB600BE03A68B6
:10158000FB68D3181A78134B1100180000F030F9DB
:10159000FB680133FB607B68FA689A42EFD30E4B1D
:1015A0001B68082213400DD10B4B1A680A4B082107
:1015B0000A431A60074B180000F04BF903001A00A9
:1015C000054B9A6200231800BD4604B080BDC0469A
:1015D00014010020C80000200038014080B584B00C
:1015E00000AF786072B6C046454B00229A64444B07
:1015F0009A6C434B5A64424B5A6C414B1A64414BB0
:1016000000229A643F4B9A6C3E4B5A643D4B5A6C95
:101610003C4B1A643C4B01221A603C4B00221A607E
:101620003B4BDA6A3A4B01210A43DA62394BFB60E1
:101630007968F86800F028FF0300FB60A023DB0551
:101640009A68A023DB058021C9020A439A60A0237F
:10165000DB055A68A023DB052F490A405A60A02306
:10166000DB051B682D4A1A40A023DB0580210903F6
:101670000A431A60A023DB055A6AA023DB05402138
:101680000A435A62A023DB051B68254A1A40A0239F
:10169000DB05802189030A431A60A023DB055A6A0F
:1016A000A023DB058021C9000A435A62184B5A6BFC
:1016B000174B8021C9010A435A631A4B1A68194B08
:1016C0006C210A431A60174B00225A60154B002206
:1016D0009A60144BFA68DA60124B1A68114B0121B8
:1016E0000A431A60104B1A680F4B802109050A4300
:1016F0001A6062B6C046C046BD4604B080BDC04652
:101700007C000020C80000201401002018010020E7
:10171000001002400048E801FFFDFFFFFFFFF3FF5C
:10172000FFFFCFFF0038014000E100E080B500AFCF
:10173000084BDB698022134001D000F025F8054BEF
:10174000DB692022134001D000F006F8C046BD46F8
:1017500080BDC0460038014080B500AF074B5B6AD2
:10176000DAB2074B1100180000F042F8031E02D055
:10177000044B01221A60C046BD4680BD00380140BE
:101780007C0000201801002080B500AF164B180027
:1017900000F08AF8031E08D0134B180000F059F827
:1017A00003001A00114B9A621BE0104B1A680F4B92
:1017B00008218A431A600D4BDB694022134005D093
:1017C0000A4B1A6A094B40210A431A62074BDB692C
:1017D0008022134005D0054B9A69044B10210A431F
:1017E0009A61C046BD4680BDC80000200038014057
:1017F00080B582B000AF78600A00FB1C1A707B686D
:101800001A6C7B685B6C9A4205D17B689B6C002BE1
:1018100001D0012319E072B6C0467B681B6C591CCD
:101820007A6811647A68F91C0978D1547B689B6CDA
:101830005A1C7B689A647B681B6C402B02D17B68C6
:1018400000221A6462B6C04600231800BD4602B0EA
:1018500080BD80B584B000AF78607B689B6C002B46
:1018600001D100231CE072B6C0467B685B6C591C3A
:101870007A6851640F22BA187968CB5C13707B6860
:101880005B6C402B02D17B6800225A647B689B6CA6
:101890005A1E7B689A6462B6C0460F23FB181B78F9
:1018A0001800BD4604B080BD80B582B000AF78603E
:1018B0007B689B6C1800BD4602B080BD80B582B0CD
:1018C00000AF78600B4B1B68002B09D101235B42F2
:1018D0000BE07B685A1C7A6019000120FFF72EFE8E
:1018E0007B681B78002BF4D100231800BD4602B0A2
:1018F00080BDC0461401002080B582B000AF020058
:10190000FB1D1A70FB1D19000120FFF717FEC046D2
:10191000BD4602B080BD80B500AF044B1800FFF794
:1019200098FF03001800BD4680BDC0467C00002023
:10193000B0B584B000AF786039601E4B1B68002BD7
:1019400002D101235B4231E00023FB600B23FB1833
:1019500000221A7017E0C046174B1800FFF7A4FFCB
:10196000031EF9D00B257C19134B1800FFF771FFEC
:1019700003002370FB685A1CFA601A007B689B18EE
:101980007A1912781A703B68013BFA689A4204DAB5
:101990000B23FB181B780D2BDDD1FB68002B04DD1E
:1019A000FB687A68D31800221A70FB681800BD46DD
:1019B00004B0B0BD140100207C00002090B583B0BD
:1019C00000AFFC1DFFF7A7FF03002370FB1D1B7872
:1019D0001800FFF791FFFB1D1B781800BD4603B0F0
:1019E00090BDB0B584B000AF78603960214B1B6802
:1019F000002B02D101235B4237E00023FB600B2365
:101A0000FB1800221A701DE0C0461B4B1800FFF7A0
:101A10004BFF031EF9D00B257C19174B1800FFF75D
:101A200018FF030023702C003B191B781800FFF7E8
:101A300063FFFB685A1CFA601A007B689B183A190E
:101A400012781A703B68013BFA689A4204DA0B2359
:101A5000FB181B780D2BD7D1FB68002B04DDFB682E
:101A60007A68D31800221A70FB681800BD4604B0CB
:101A7000B0BDC046140100207C00002090B585B0A8
:101A800000AF78603960184B1B68002B02D101232E
:101A90005B4224E00023FB600AE0FB685A1CFA600A
:101AA0003A68D418114B180000F0ABF9030023700A
:101AB0007B68013B1A00FB68934205D20B4B180070
:101AC00000F0CAF9031EE8D1FB68002B06D03A6883
:101AD000FB68D31800221A70FB6800E0002318008E
:101AE000BD4605B090BDC046B801002020010020D1
:101AF00080B584B000AF78603960224B1B68002B42
:101B000002D101235B4238E07B683F2B0BDCC046EF
:101B10001D4B180000F0A0F903004022D21A7B6888
:101B20009A42F5D302E002235B4226E00023FB60E9
:101B30000BE03A68FB68D3181A78134B11001800B1
:101B400000F02EF9FB680133FB607B68FA689A426B
:101B5000EFD30E4B1B68082213400DD10B4B1A68B4
:101B60000A4B08210A431A60074B180000F049F994
:101B700003001A00054B9A6200231800BD4604B00A
:101B800080BDC046B80100206C0100200044004028
:101B900080B584B000AF786072B6C046454B002275
:101BA0009A64444B9A6C434B5A64424B5A6C414B77
:101BB0001A64414B00229A643F4B9A6C3E4B5A6424
:101BC0003D4B5A6C3C4B1A643C4B01221A603C4B17
:101BD00000221A603B4BDA6A3A4B01210A43DA626F
:101BE000394BFB607968F86800F04EFC0300FB603D
:101BF000A023DB059A68A023DB05802149050A4361
:101C00009A60A023DB055A68A023DB052F490A4010
:101C10005A60A023DB051B682D4A1A40A023DB0570
:101C2000802189050A431A60A023DB055A6AA02394
:101C3000DB058021C9040A435A62A023DB051B6827
:101C40009B009A08A023DB05802109060A431A603D
:101C5000A023DB055A6AA023DB058021C9050A43BE
:101C60005A62184B9A6B174B802189020A439A6378
:101C7000184B1A68174B6C210A431A60154B002247
:101C80005A60144B00229A60124BFA68DA60114BCA
:101C90001A68104B01210A431A600F4B1A680E4B49
:101CA000802149050A431A6062B6C046C046BD4657
:101CB00004B080BD200100206C010020B80100208C
:101CC000BC010020001002400048E801FFBFFFFFF8
:101CD000FFFFFFCF0044004000E100E080B500AF0F
:101CE000084BDB698022134001D000F025F8054B3A
:101CF000DB692022134001D000F006F8C046BD4643
:101D000080BDC0460044004080B500AF074B5B6A11
:101D1000DAB2074B1100180000F042F8031E02D09F
:101D2000044B01221A60C046BD4680BD00440040FD
:101D300020010020BC01002080B500AF164B180028
:101D400000F08AF8031E08D0134B180000F059F871
:101D500003001A00114B9A621BE0104B1A680F4BDC
:101D600008218A431A600D4BDB694022134005D0DD
:101D70000A4B1A6A094B40210A431A62074BDB6976
:101D80008022134005D0054B9A69044B10210A4369
:101D90009A61C046BD4680BD6C01002000440040F1
:101DA00080B582B000AF78600A00FB1C1A707B68B7
:101DB0001A6C7B685B6C9A4205D17B689B6C002B2C
:101DC00001D0012319E072B6C0467B681B6C591C18
:101DD0007A6811647A68F91C0978D1547B689B6C25
:101DE0005A1C7B689A647B681B6C402B02D17B6811
:101DF00000221A6462B6C04600231800BD4602B035
:101E000080BD80B584B000AF78607B689B6C002B90
:101E100001D100231CE072B6C0467B685B6C591C84
:101E20007A6851640F22BA187968CB5C13707B68AA
:101E30005B6C402B02D17B6800225A647B689B6CF0
:101E40005A1E7B689A6462B6C0460F23FB181B7843
:101E50001800BD4604B080BD80B582B000AF786088
:101E60007B689B6C1800BD4602B080BD80B582B017
:101E700000AF78600B4B1B68002B09D101235B423C
:101E80000BE07B685A1C7A6019000120FFF730FED6
:101E90007B681B78002BF4D100231800BD4602B0EC
:101EA00080BDC046B801002080B582B000AF0200FE
:101EB000FB1D1A70FB1D19000120FFF719FEC0461B
:101EC000BD4602B080BD80B500AF044B1800FFF7DF
:101ED00098FF03001800BD4680BDC04620010020C9
:101EE000B0B584B000AF786039601E4B1B68002B22
:101EF00002D101235B4231E00023FB600B23FB187E
:101F000000221A7017E0C046174B1800FFF7A4FF15
:101F1000031EF9D00B257C19134B1800FFF771FF36
:101F200003002370FB685A1CFA601A007B689B1838
:101F30007A1912781A703B68013BFA689A4204DAFF
:101F40000B23FB181B780A2BDDD1FB68002B04DD6B
:101F5000FB687A68D31800221A70FB681800BD4627
:101F600004B0B0BDB80100202001002080B500AF52
:101F7000034B1800FFF770FF03001800BD4680BD3B
:101F80002001002090B583B000AFFC1DFFF79BFF40
:101F900003002370FB1D1B781800FFF785FFFB1D56
:101FA0001B781800BD4603B090BDB0B584B000AF3B
:101FB00078603960214B1B68002B02D101235B4202
:101FC00037E00023FB600B23FB1800221A701DE092
:101FD000C0461B4B1800FFF73FFF031EF9D00B252F
:101FE0007C19174B1800FFF70CFF030023702C001F
:101FF0003B191B781800FFF757FFFB685A1CFA6063
:102000001A007B689B183A1912781A703B68013BDA
:10201000FA689A4204DA0B23FB181B780D2BD7D1F0
:10202000FB68002B04DDFB687A68D31800221A7065
:10203000FB681800BD4604B0B0BDC046B801002022
:102040002001002080B582B000AF164B7B60164B9C
:102050003B6007E07A68131D7B603B68191D39609F
:1020600012681A603A68114B9A42F3D304E03B6855
:102070001A1D3A6000221A603A680D4B9A42F6D354
:102080000C4B3B6004E03B681A1D3A601B689847A4
:102090003A68094B9A42F6D3C046C046BD4602B0E4
:1020A00080BDC046284800080000002068000020CD
:1020B000E4010020284800082848000880B500AF47
:1020C0003B4B1A683A4B01210A431A60C046384B11
:1020D0001B6804221340FAD0354B0122DA60C04657
:1020E000334BDB680C221340042BF9D1314B1A68B7
:1020F000304B02210A431A602E4B1A682D4B0121E6
:102100000A431A602A4B9A6B294B802149050A43DE
:102110009A63294B802212011A60C046264B5B68E5
:1021200010221340FAD1224BDA68214B23490A408E
:10213000DA601F4BDA681E4B8821C9030A43DA6054
:102140001B4A1B4BD268DA60194A194BD268DA6015
:10215000174A174BD268DA60154B1A68144B1849A6
:102160000A401A60124B1A68114B802149040A4335
:102170001A60C0460E4B1A6880239B041340F9D0A6
:102180000B4BDA680A4B03218A43DA60084BDA68A2
:10219000074B03210A43DA60C046054BDB680C227B
:1021A00013400C2BF9D1C046C046BD4680BDC04689
:1021B000001002400020024000700040FFFF02FFBC
:1021C000FFFFFFFE80B500AF024B1800FFF776FB64
:1021D000FEE7C046F845000880B500AF024B180086
:1021E000FFF76CFBFEE7C0462846000880B582B0CA
:1021F00000AF7860FEE780B582B000AF7860012361
:102200005B421800BD4602B080BD80B584B000AF0F
:10221000F860B9607A60044B0C221A6001235B42BB
:102220001800BD4604B080BDCC01002080B500AFD1
:10223000034B0B221A6001235B421800BD4680BD90
:10224000CC01002080B582B000AF786039603B6877
:10225000802292015A6000231800BD4602B080BD62
:1022600080B500AF01231800BD4680BD80B582B0A7
:1022700000AF78603960044B16221A6001235B427C
:102280001800BD4602B080BDCC01002080B582B0F0
:1022900000AF78603960044B1F221A6001235B4253
:1022A0001800BD4602B080BDCC01002080B584B0CE
:1022B00000AFF860B9607A6000231800BD4604B032
:1022C00080BD80B582B000AF786039603B68802205
:1022D00092015A6000231800BD4602B080BD80B54F
:1022E00082B000AF786001235B421800BD4602B0A7
:1022F00080BD80B582B000AF7860044B02221A60C6
:1023000001235B421800BD4602B080BDCC01002015
:1023100080B582B000AF7860044B0A221A600123B6
:102320005B421800BD4602B080BDC046CC01002013
:1023300080B582B000AF78607B68022B01D80123A2
:1023400003E0044B09221A6000231800BD4602B0C6
:1023500080BDC046CC01002080B586B000AF78605B
:10236000124B7B61124B3B61124B1B68002B02D15D
:10237000104B7A691A600F4B1B68FB600D4B1A6893
:102380007B68D3183A699A4205D20B4B0C221A602B
:1023900001235B4206E0074B1A687B68D218054BA5
:1023A0001A60FB681800BD4606B080BDE40100203D
:1023B00000100020C8010020CC01002080B588B0AA
:1023C00000AFF860B9607A600023BB61FB68002B46
:1023D00022D10023FB611AE0FFF79DFA03001A00E7
:1023E00017217B181A70BB685A1CBA607A181278C9
:1023F000D2B21A70BB690133BB617B181B78DBB2A8
:102400000A2B01D1BB690EE0FB690133FB61FA695C
:102410007B689A42E0DB05E0054B09221A60012344
:102420005B4200E0BB691800BD4608B080BDC046F5
:10243000CC01002080B586B000AFF860B9607A604A
:10244000FB68013B012B11D800237B6109E0BB68CD
:102450005A1CBA601B781800FFF74EFA7B690133EB
:102460007B617A697B689A42F1DB05E0054B0922C2
:102470001A6001235B4200E07B681800BD4606B08D
:1024800080BDC046CC01002003460B437FD4002210
:1024900043088B4274D303098B425FD3030A8B42F8
:1024A00044D3030B8B4228D3030C8B420DD3FF2262
:1024B000090212BA030C8B4202D31212090265D030
:1024C000030B8B4219D300E0090AC30B8B4201D3E3
:1024D000CB03C01A5241830B8B4201D38B03C01A2A
:1024E0005241430B8B4201D34B03C01A5241030BA1
:1024F0008B4201D30B03C01A5241C30A8B4201D352
:10250000CB02C01A5241830A8B4201D38B02C01AFC
:102510005241430A8B4201D34B02C01A5241030A73
:102520008B4201D30B02C01A5241CDD2C3098B4258
:1025300001D3CB01C01A524183098B4201D38B01D5
:10254000C01A524143098B4201D34B01C01A524178
:1025500003098B4201D30B01C01A5241C3088B42BD
:1025600001D3CB00C01A524183088B4201D38B00A8
:10257000C01A524143088B4201D34B00C01A52414A
:10258000411A00D201465241104670475DE0CA0F21
:1025900000D04942031000D34042534000229C46E1
:1025A00003098B422DD3030A8B4212D3FC228901EB
:1025B00012BA030A8B420CD3890192118B4208D3C1
:1025C000890192118B4204D389013AD0921100E023
:1025D0008909C3098B4201D3CB01C01A5241830937
:1025E0008B4201D38B01C01A524143098B4201D364
:1025F0004B01C01A524103098B4201D30B01C01A8F
:102600005241C3088B4201D3CB00C01A5241830808
:102610008B4201D38B00C01A5241D9D243088B425E
:1026200001D34B00C01A5241411A00D20146634601
:1026300052415B10104601D34042002B00D5494265
:10264000704763465B1000D3404201B5002000F0A4
:1026500005F802BD0029F8D016E770477047C0465C
:10266000F0B557464E464546DE46E0B598460C0363
:102670004B000600924687B0240B5B0DCF0F002B5A
:1026800000D15CE1D94A934200D175E1420FE400E8
:102690001443802212041443D54AC500944663446F
:1026A0000093002399469B46434642461E03D20FA1
:1026B0005B0050469046360B5B0D00D120E1CB4AC3
:1026C000934200D162E1CA49420F8C4600996344AB
:1026D000F6008C46164380229C441204634616433F
:1026E000C200002000930099434601318C464946C0
:1026F0007B4001930F2926D8BE4B890059588F463D
:10270000434601933400150083465B46022B16D0E6
:10271000032B00D103E2012B00D0CDE000220024E6
:102720000025019B12052243DB071A4328001100F4
:1027300007B0F0BCBB46B246A946A046F0BD002497
:102740000025AA4AEDE7280C2D042D0C2B00110CB6
:102750001204120C5343984613002F00434399462A
:102760004F434F44BB4647460B003F0CBA464343DA
:10277000DA440293D14504D980277F02B9464B44FD
:10278000029353461B0C9B4653461F0443461B04AF
:102790001B0C98463B0043440493330C3604360C20
:1027A0009846330043439946434643432F009A4695
:1027B000434677435D43380C4D444519A94503D939
:1027C00080235B029946CA443F04280C3F0C2D0429
:1027D000ED19270C2404240C0300200050437A43F5
:1027E00091463A0053440593030C9A464A43614389
:1027F00049445144AB44894503D980235B0299463F
:102800004A4400040B0C000C0904091820009946E6
:10281000434670435C437E435F43030C9846A419D0
:1028200044444A440397A64204D980235B02984655
:10283000474403972304029E9A46059B5E449846AC
:10284000AE42AD4176188E4289410004000C5044DE
:1028500040446D424719B846934649428946C344AD
:10286000D94498428041A845AD419345924189455C
:1028700089416D4240422843240C524249420A4356
:10288000039B00198018C7184B46DC0D049B75028A
:102890001D436A1E95414B46F60D7F0235435A0291
:1028A0003C431543FB0100D41CE101216A080D40A3
:1028B0001543E207154364084F496144002900DCD1
:1028C000B0E06B0709D00F222A40042A05D02A1D48
:1028D000AA42AD416D4264191500E30104D580217F
:1028E000464AC90014406144454A914200DD26E74A
:1028F0006207ED08640249051543240B4A0D10E7F1
:102900005246324300D17FE0002E00D1DCE030009F
:1029100000F078F902000B3A1D2301009B1A524681
:102920000839DA408E40164352468A40009B3549AA
:10293000181A03008C46634400200093D3E6250058
:1029400005434AD0002C00D1B0E0200000F05AF935
:10295000010002000B391D2310005B1A3100350005
:1029600008388440D94085400C432648831A009398
:10297000002399469B4697E60500254326D1082269
:1029800000930223002491469B468DE65246009B0D
:10299000324310D1154900268C46634449460093C2
:1029A00002231943894602209DE65B460197022BCC
:1029B00000D0ADE6C3E60D4A0320944663444A4680
:1029C000009303231A43914652468CE60C2200934F
:1029D0000323050091469B4666E60423994600239F
:1029E0000093013300249B465EE6C046FF070000CB
:1029F00001FCFFFF4C460008FF030000FFFFFFFE45
:102A0000FE0700000DFCFFFF4946012319438946DC
:102A10000026012067E6002380240025434A019315
:102A200024037EE60120401A382800DD76E61F28C0
:102A30005BDD1F2223005242511ACB40190020288F
:102A400003D03B4A6244944025436A1E95412A00C4
:102A50000A4307210D000024154011425BD00F21CD
:102A600000241140042953D0111D91429241524239
:102A7000A4180A0023024BD501220024002550E6A9
:102A800080231B031C4209D01E4207D133431C0381
:102A900043461500240B254A019342E68022120387
:102AA00014432403214A240B01973AE600F0AAF8C4
:102AB00001000200153120321C2900DC4BE73400F4
:102AC00008380025844050E700F09CF803001A0005
:102AD000153220301C2A00DC1EE75646083B002237
:102AE0009E4023E7009B9C46E6E612492200614493
:102AF0002E008D408A40C640691E8D4132432A43D4
:102B0000C4405307B6D00F2111400429ACD1B1E71E
:102B100065076402240BD2081543002201E68022D7
:102B2000120314432403014A240BFAE5FF070000B3
:102B30003E0400001E0400000A0030B5134C530090
:102B400009030500090B00205B0DD20FA34204DD31
:102B50000F48834202DD0F4BD01830BD8020400368
:102B600001430D48C01A1F2808DD0C48C31AD9407C
:102B70000B005842002AF0D11800EEE7084CC5407F
:102B8000A446634499400B002B43F2E7FE03000088
:102B90001D040000FFFFFF7F33040000130400004A
:102BA000EDFBFFFF70B5002816D0C317C5185D40B8
:102BB000C40F280000F026F8114A121A0A2816DC61
:102BC00003002E0015339E400B23181AC5405205F2
:102BD0002D032D0B530D03E00024002300250026B8
:102BE0001B052B43E40723433000190070BD0B384D
:102BF000854052052D0300262D0B530DF0E7C046EE
:102C00001E0400001C2101231B04984201D3000C68
:102C100010391B0A984201D3000A08391B0998424F
:102C200001D30009043902A2105C40187047C04665
:102C30000403020201010101000000000000000085
:102C400010B50A22002100F061F910BD10B50A2369
:102C5000002200F04BF910BD0EB417B5041E04D0CD
:102C60008369002B01D100F09FFB06AB2000059A81
:102C7000A168019300F008FE1EBC08BC03B0184711
:102C80000FB40B4B13B51C68002C05D0A369002BA7
:102C900002D1200000F088FB05AB2000049AA16857
:102CA000019300F0F1FD16BC08BC04B01847C04603
:102CB0000400002070B505000E00002804D08369D0
:102CC000002B01D100F070FBAB69AC68002B02D186
:102CD000280000F069FB2D4B9C4222D16C68636E8A
:102CE000DB0705D4A3899B0502D4A06D00F038FC56
:102CF000A3891B0702D52369002B29D121002800B5
:102D000000F070F9002823D001256D42636EDB07C7
:102D100005D4A3899B0502D4A06D00F027FC2800F0
:102D200070BD1B4B9C4201D1AC68D8E7194B9C424B
:102D3000D5D1EC68D3E70136A360002B04DAA26991
:102D40009A4216DC0A2914D023685A1C2260197092
:102D5000A3683178013B0029EDD1A360002B0FDA85
:102D6000280022000A3100F0DDF80A25431CCDD1ED
:102D7000CAE72200280000F0D5F8431CE8D1C3E7D9
:102D80000A2523685A1C22601D70BFE7B04700085F
:102D9000D04700089047000810B5034B01001868A1
:102DA000FFF788FF10BDC0460400002002780B78B2
:102DB000002A03D0013001319A42F7D0D01A70476F
:102DC0000023C25C0133002AFBD1581E704700006B
:102DD000F0B587B01E00059001910292012B45D0FD
:102DE0000B00242E42D83F4A082194461A00604620
:102DF00014780133005D1D0007000F400842F5D133
:102E00002D2C3AD101271C78951C002E65D0102E50
:102E100009D1302C07D120222B789343582B57D13E
:102E200010266C780235304B3100FB1818000393E4
:102E300001F02CFB00230122844618000491524229
:102E40002100303909291DD80C00A64228DD002BAD
:102E500024DB1300844506D302D10499A14202DB8E
:102E60000123704320182C780135E9E700F032F98E
:102E700016230360002007B0F0BD2B2CC5D11C78B1
:102E8000951CC2E721004139192901D8373CDCE7FC
:102E900021006139192903D8573CD6E71300E2E72E
:102EA000002B09DA2223059A03981360029B002B5A
:102EB000E1D06B1E019307E0002F00D04042029A40
:102EC000002AD8D0002BF4D1029B019A1A60D2E7D5
:102ED0003024002EA7D10836A5E7302C9BD00A2637
:102EE000A1E7C0468D460008FFFFFF7F10B5FFF742
:102EF0006FFF10BD10B513000A0001000248006802
:102F0000FFF766FF10BDC0460400002010B5130097
:102F10000A00010002480068FFF75AFF10BDC046D2
:102F200004000020F8B505000E001400002804D0AD
:102F30008369002B01D100F037FA224B9C422ED13D
:102F40006C68A369A360A3891B0732D52369002B92
:102F50002FD023682269F7B2981A6369F6B28342C8
:102F600005DC2100280000F047F9002827D1A368DC
:102F70000130013BA36023685A1C22601F70636903
:102F8000834204D0A389DB0707D50A2E05D121008F
:102F9000280000F031F9002811D13000F8BD0A4BAB
:102FA0009C4201D1AC68CCE7084B9C42C9D1EC688B
:102FB000C7E72100280000F015F80028C9D0012635
:102FC0007642EAE7B0470008D0470008904700087B
:102FD00010B5034B0A0001001868FFF7A3FF10BDEE
:102FE00004000020374B70B51D6806000C00002D52
:102FF00005D0AB69002B02D1280000F0D5F9324B87
:103000009C420FD16C680C23E25E93B211072DD461
:10301000D90611D409230120336037331343A38128
:10302000404270BD294B9C4201D1AC68EBE7284B74
:103030009C42E8D1EC68E6E75B0713D5616B002999
:1030400008D023004433994202D0300000F004FB42
:10305000002363632422A3899343A3810023636035
:10306000236923600823A2891343A3812369002BCA
:103070000BD1A0218022A389890092000B409342AA
:1030800003D02100300000F09BFA0C22A35E012047
:103090001A0099B2024003420FD00022A260626976
:1030A0005242A261002022698242BAD10A06B8D5F2
:1030B00040221343A3810138B3E7880700D4626933
:1030C000A260EFE704000020B0470008D0470008E6
:1030D00090470008014B18687047C0460400002064
:1030E000F7B58B8905000C001A075FD44A68002ADF
:1030F00004DC0A6C002A01DC0020FEBDE76A002F18
:10310000FAD0002280212E682A601A0049010A4064
:103110000B4234D0606DA3895B0706D56368C01A83
:10312000636B002B01D0236CC01A0200216A0023BC
:103130002800E76AB847A189431C06D12B681D2BDC
:1031400031D82C4ADA40D3072DD500236360236998
:103150002360CB0405D5431C02D12B68002B00D182
:103160006065616B2E600029C6D02300443399420C
:1031700002D0280000F070FA00206063BDE7012350
:103180002800216AB847431CC5D12B68002BC2D048
:103190001D2B01D0162B01D12E60ADE74023A28953
:1031A0001343A381A9E740230B43FAE70F69002FDC
:1031B000A2D00A680F60D21B019200229B0700D1A7
:1031C0004A69A260019B002B00DC95E73A002800C9
:1031D000019B216AA66AB047002806DC4023012033
:1031E000A28940421343A38187E7019B3F181B1A22
:1031F0000193E7E7010040200B6970B505000C0062
:10320000002B02D10025280070BD002804D083695E
:10321000002B01D100F0C8F8144B9C421BD16C6804
:103220000C22A35E002BEDD0626ED20704D49B0566
:1032300002D4A06D00F094F928002100FFF750FFA0
:10324000636E0500DB07DED4A3899B05DBD4A06D8C
:1032500000F08CF9D7E7064B9C4201D1AC68DFE760
:10326000044B9C42DCD1EC68DAE7C046B04700086A
:10327000D047000890470008010010B5002805D18C
:10328000054B0649186800F046F910BD044B186854
:10329000FFF7B2FFF9E7C046F0470008F931000830
:1032A00004000020002310B5040003604360836025
:1032B000818143661900C2810361436183610822F1
:1032C0005C3000F0C1F9054B24626362044BA362D9
:1032D000044BE362044B236310BDC0463D3E00082F
:1032E000693E0008A13E0008CD3E000810B5024925
:1032F00000F011F910BDC046F9310008436E10B559
:10330000DB0705D483899B0502D4806D00F028F982
:10331000002010BD436E10B5DB0705D483899B05E3
:1033200002D4806D00F022F9002010BD70B5682530
:103330004A1E55430E002900743100F0F9F9041EAD
:1033400008D000212A00016046600C30A06068327D
:1033500000F07AF9200070BD10B5024B1868FFF735
:10336000C5FF10BDF047000810B5024800F0F8F89E
:1033700010BDC046D601002010B5024800F0F6F896
:1033800010BDC046D601002010B5024800F0E8F894
:1033900010BDC046D701002010B5024800F0E6F885
:1033A00010BDC046D701002013B50400FFF7ECFFA5
:1033B000A369002B02D0FFF7EFFF13BDA364E36402
:1033C0002365134B134A1B68A2620193A34201D1E8
:1033D0000123A361200000F01FF86060200000F0CE
:1033E0001BF8A060200000F017F800220421E06024
:1033F0006068FFF757FF01220921A068FFF752FF1D
:1034000002221221E068FFF74DFF0123A361D2E7FA
:10341000F0470008ED320008F8B50700FFF7A4FFF9
:103420001F4B1E68B369002B02D13000FFF7BCFFB1
:103430004836B4687368013B04D53368002B22D04A
:103440003668F6E70C22A55E002D1AD12000154B38
:103450005830E360656600F07FF8FFF78DFF2000CD
:10346000082229002560A560656025616561A56168
:103470005C3000F0E9F86563A563A564E5642000AD
:10348000F8BD6834D7E704213800FFF74FFF041E6A
:103490003060D5D1FFF770FF0C233B60EFE7C046EB
:1034A000F04700080100FFFF10B5FFF75DFF034B79
:1034B0000349186800F014F810BDC046040000204D
:1034C000FD32000810B5044B0449186800F008F8F4
:1034D000FFF752FF10BDC04604000020153300085E
:1034E000F7B54830040000260191A5686768013FE0
:1034F00004D52468002CF8D13000FEBDAB89012B27
:1035000007D90E22AB5E013303D02800019B9847F8
:1035100006436835EBE7F7B5040006000027019184
:1035200048346368A5680093009B013B009304D571
:103530002468002CF5D13800FEBDAB89012B08D9D9
:103540000E22AB5E013304D029003000019B984766
:1035500007436835E8E77047704770477047704722
:103560007047012070470120704770477047000086
:1035700070B50E001D000E23C95E140096B0002920
:1035800008DA0C22B35E00222A601B0611D48023C5
:10359000DB000FE06A4600F0C5FC0028F1DBF023F9
:1035A00001991B021940054BC9184B42594129602A
:1035B000EDE740230020236016B070BD00E0FFFF60
:1035C000F7B502268B8905000C00334206D0230094
:1035D00047332360236101236361F7BD6A4601AB72
:1035E000FFF7C6FF00990700280000F0A1F80028A7
:1035F00008D10C22A35E9A05EFD4032293431E4305
:10360000A681E4E70F4BAB628023A28920601343BD
:10361000A381009B20616361019B002B0DD02800DA
:103620000E23E15E00F0F8FD002806D00322A389F6
:1036300093431A0001231343A381A0890743A78161
:10364000CBE7C046ED32000803008218934200D158
:10365000704719700133F9E770B50500002910D0E3
:103660000C1F2368002B00DAE418280000F022FE6B
:103670001D4A1368002B05D163601460280000F018
:1036800021FE70BDA34208D9216860188342F3D19E
:1036900018685B6841182160EEE71A005B68002B30
:1036A00001D0A342F9D911685018A0420BD120686B
:1036B0000918501811608342E0D118685B684118FE
:1036C00011605360DAE7A04202D90C232B60D5E7E2
:1036D00021686018834203D118685B684118216033
:1036E00063605460CAE7C046DC01002070B50F4E2D
:1036F0000D0031680400002902D100F08DFB30601C
:103700002900200000F088FB431C0AD00323C51CBD
:103710009D43A84207D0291A200000F07DFB431CDE
:1037200001D101256D42280070BDC046E001002096
:10373000F7B50322CB1C9343083306001F000C2B64
:1037400032D20C27B94231D8300000F0B3FD324DEF
:103750002B681C00002C2ED139003000FFF7C6FF6B
:103760000400431C1ED12C682500002D4AD123687B
:103770002900E3183000019300F04EFB019B8342C7
:1037800043D123680337FF1A03239F4308370C2FC5
:1037900000D20C2739003000FFF7A8FF431C34D0BB
:1037A0002368DF19276013E0002BCBDA0C230025F8
:1037B00033602800FEBD2268D11B20D40B2917D905
:1037C000E2192760A34211D12A6063681160536037
:1037D0003000250000F076FD07220B35231D9543B0
:1037E000EA1A9D42E5D05B1BA350E2E75A60ECE782
:1037F0006268A34201D12A60EAE75A60E8E7230041
:103800006468A7E72C006D68AFE70C2330003360D5
:1038100000F058FDCDE7C046DC010020936810B5EC
:10382000013B9360002B04DA9469A34207DB0A2969
:1038300005D01368581C10601970080010BDFFF700
:1038400071FB0100F9E7F8B506000F001400D51868
:10385000AC4201D1002007E021783A003000FFF7A8
:10386000DDFF0134431CF3D1F8BD936810B514009B
:10387000002B02D11800536010BD00F065FB00233F
:10388000A3606360F8E70000F0B5A1B006000C008B
:103890001F000392002804D08369002B01D1FFF799
:1038A00083FD8E4B9C421CD17468636EDB0705D48C
:1038B000A3899B0502D4A06DFFF752FEA3891B07C5
:1038C00002D52369002B1DD121003000FFF78AFBB0
:1038D000002817D0636EDB070DD50120404221B0D0
:1038E000F0BD7F4B9C4201D1B468DEE77D4B9C422A
:1038F000DBD1F468D9E7A3899B05EED4A06DFFF76F
:1039000035FEEAE7002308AD6B6120336B76103398
:10391000AB760797039F3B78002B01D0252B4ED128
:10392000039BFB1A0593039B9F420DD0059B21002F
:103930003000039AFFF787FF431C00D1B5E06A69A6
:10394000059B944663446B613B78002B00D1ACE04F
:1039500001227B1C0393002352426A6004A9543263
:1039600052182B60EB60AB601370AB65039B0522B4
:1039700019785D4800F076FC039B5F1C002820D17D
:103980002A68D30604D5532304A95B182021197093
:10399000130704D5532304A95B182B211970039B2B
:1039A0001B782A2B16D00021EB68039F3A78781CED
:1039B000303A8446092A4FD9002911D117E001373E
:1039C000A9E7494B2A68C01A0123834013432B609F
:1039D0000397CBE7079B191D1B680791002B01DBA1
:1039E0000B9304E05B42EB60022313432B603B78B4
:1039F0002E2B0AD17B782A2B37D1079B02371A1D31
:103A00001B680792002B2DDB099303223978374876
:103A100000F028FC002807D0344B2A68C01A402345
:103A20008340134301372B6039787B1C06223048D2
:103A30000393297600F016FC002845D02D4B002B6F
:103A400027D10722079B07339343083307936B69FA
:103A5000049A9B186B615DE70A214B4367469B18EC
:103A60000939A3E701235B42CEE700231A0001379F
:103A70006B603978781C30398446092903D9002BCA
:103A8000C3D00992C1E70A235A4367465218093B3B
:103A9000EFE707AB0093220029003000164B00E04F
:103AA00000BF0490049B0133D1D1636EDB0705D4C2
:103AB000A3899B0502D4A06DFFF758FDA3895B067F
:103AC00000D50AE70D980AE707AB0093220029000A
:103AD0003000094B00F08EF8E3E7C046B04700081D
:103AE000D047000890470008F4470008FA4700084C
:103AF000FE470008000000004738000810B513001A
:103B00000A00010002480068FFF7BEFE10BDC04673
:103B100004000020F7B5150001938A680B690C00BA
:103B20000090934200DA130022002B604332127897
:103B3000002A01D001332B6023689B0602D52B6835
:103B400002332B602268062317001F401A4227D039
:103B5000230043331B785A1E93412268920630D4C7
:103B6000220001990098089E4332B047431C25D09B
:103B7000062320682A68E16800250340042B03D14E
:103B80008D1AEB43DB171D40A3682269934201DDC8
:103B90009B1AED180027BD4220D1002010E001370C
:103BA000E3682A689B1ABB42D2DD220001230199F7
:103BB0000098089E1932B047431CF0D101204042C2
:103BC000FEBD3020E1184331087021005A1C4531F8
:103BD0000978A218433202331170C1E72200012391
:103BE00001990098089E1A32B047431CE6D001376D
:103BF000D1E70000F0B58BB006920A00433207937C
:103C0000059004920A7E0C00109B782A07D8622A3D
:103C100009D8002A00D1C1E0582A00D18CE0260042
:103C20004236327022E0100063381528F7D800F0D1
:103C30009DFB16001F00F6FFF6FFF6FFF6FF1F00C4
:103C4000F6FFF6FFF6FFF6FFA80036009A00F6FF33
:103C5000F6FFB900F6FF3600F6FFF6FF9E002600DD
:103C60001A684236111D1960136833700123A7E0EA
:103C7000086819680A1D05060BD50D681A60002D25
:103C800003DA2D23049A6D421370614B0A270393C4
:103C90001BE00D681A604106F1D52DB2EFE70D6803
:103CA0001968081D18602E0601D50D6803E06D0621
:103CB000FBD50D68ADB2564B082703936F2A00D091
:103CC00002372300002243331A706368A360002B7D
:103CD00003DB0422216891432160002D02D1049E60
:103CE000002B0CD0049E2800390000F0CFFB039B72
:103CF000013E5B5C33702B0005009F42F3D9082F17
:103D000009D12368DB0706D563682269934202DC88
:103D10003023013E3370049B9B1B2361079B2100D2
:103D200000930598069B09AAFFF7F4FE431C4CD1AB
:103D3000012040420BB0F0BD45310A70344A039275
:103D40001A68216820CA1A60080616D5CB0702D562
:103D50002023194321601027002DB2D1202322688F
:103D60009A432260ADE7202209680A4322602200BC
:103D7000782145321170274AE1E74806E6D5ADB211
:103D8000E4E71A680D68101D4969186013682E066B
:103D900001D5196002E06D06FBD519800023049E51
:103DA0002361BBE71A68111D1960166800213000F5
:103DB000626800F057FA002801D0801B60606368D9
:103DC00023610023049A1370A8E72369320006993F
:103DD0000598079DA847431CAAD023689B0715D4C4
:103DE000099BE0689842A5DA1800A3E722000123A6
:103DF00006990598079E1932B047431C98D00135A3
:103E0000E368099A9B1AAB42F0DCE9E70025F7E783
:103E10000548000816480008002370B5064D040048
:103E200008002B60FEF798FA431C03D12B68002B87
:103E300000D0236070BDC046CC01002070B50C00DE
:103E40000E25495F00F076FA002803DB636D1B182E
:103E5000636570BDA389024A1340A381F9E7C04698
:103E6000FFEFFFFF00207047F8B51F008B890500AA
:103E70000C001600DB0505D50E23C95E00220223C7
:103E800000F0DCF9A389054A28001340A381320021
:103E90000E23E15E3B0000F01FF8F8BDFFEFFFFFCF
:103EA00070B50C000E25495F00F0C8F9A389421CCB
:103EB00003D1054A1340A38170BD802252011343F0
:103EC000A3816065F8E7C046FFEFFFFF10B50E2342
:103ED000C95E00F015F810BD70B5040008001100AF
:103EE0001A000023054D2B60FEF7A4FA431C03D1F2
:103EF0002B68002B00D0236070BDC046CC01002091
:103F0000002370B5064D040008002B60FEF773F91E
:103F1000431C03D12B68002B00D0236070BDC0462A
:103F2000CC010020002370B5064D040008001100EC
:103F30002B60FEF787F9431C03D12B68002B00D0C0
:103F4000236070BDCC010020F0B5936887B00C00F1
:103F500017000390002B02D1002007B0F0BD8B8921
:103F60001B0759D50B69002B56D03B6802220293E0
:103F7000A38918001040134275D1012201211A4073
:103F80000B4200D1ADE0060001900490049B002B91
:103F900000D116E100280CD11A000A21300000F0EF
:103FA00061F9049B01330193002802D00130831B87
:103FB0000193019B049A0593934200D905922068CE
:103FC00022696369904200D804E1A2689D18059AAD
:103FD000AA4200DCFEE031002A0000F057F9236815
:103FE00021005B1903982360FFF706F9002873D1BD
:103FF000019B01205B1B019305D121000398FFF772
:10400000FBF8002868D1049B76195B1B0493BB68FE
:104010005D1BBD60BAD19FE721000398FEF7E2FF68
:104020000028A2D00120404297E7029B1B68019321
:10403000029B5D6808330293002DF6D0724A2B0074
:10404000954200D91300019A216A0398A66AB047E5
:10405000002841DD019B2D1A1B180193BB68181A1B
:10406000B860E9D178E700231D000193E4E7029BE3
:104070001B680493029B5B680193029B08330293C5
:10408000019B002BF3D08023A2899B002068A568A8
:104090001A4264D0019B9D4238D89023DB001A421B
:1040A00034D02169431A0320059363695843059B63
:1040B000C60F3618019801331B187610B34200D989
:1040C0001E0053053CD531000398FFF731FB051E58
:1040D0000AD10C23039A13604023A2891343A381BE
:1040E000A0E704920192CBE7059A216900F0C5F898
:1040F000A389464A1A4080231343A381059B256167
:10410000ED1825606661019DF61AA660019EB54214
:1041100000D935002A000499206800F0B7F8A36898
:104120005B1BA36023685D192560049B9B190493A6
:10413000019B9B1B0193BB689E1BBE60A0D10BE73C
:104140003200039800F0C6F8051ED7D12169039804
:10415000FFF782FA8022A3899343A381B9E72369F9
:10416000834203D36669019B9E4217D9019B9D42FE
:1041700000D91D002A00049900F088F8A36822687D
:104180005B1B52192E00A3602260002BCDD12100B1
:104190000398FFF731F80028C7D09DE7019A1C4B20
:1041A00010009A4200D91B483100FEF76DF9330028
:1041B000049A4343216A0398A56AA847061EB4DC03
:1041C0008AE7029B00201E685B680493029B083309
:1041D0000293DBE6059A934208DCA56A3200216A65
:1041E0000398A847051E00DD02E775E7059A310030
:1041F00000F04CF8059AA36815009B1AA360236889
:104200009B182360F4E6C04600FCFF7F7FFBFFFFA6
:10421000FEFFFF7FFFFFFF7F002370B5064D040008
:1042200008002B60FEF784F8431C03D12B68002B99
:1042300000D0236070BDC046CC01002070B50400E2
:10424000080011001A000023054D2B60FEF72EF820
:10425000431C03D12B68002B00D0236070BDC046E7
:10426000CC010020C9B28218904201D100207047D1
:1042700003788B42FBD00130F6E7002310B59A4259
:1042800000D110BDCC5CC4540133F8E710B58842AE
:1042900002D98B18984203D3002307E08B5C835428
:1042A000013AFBD210BDCC5CC45401339A42FAD11E
:1042B000F8E7000010B50248FFF752F910BDC046FC
:1042C000D501002010B50248FFF750F910BDC046D7
:1042D000D5010020F7B507000E001400002905D114
:1042E0001100FFF725FA05002800FEBD002A03D1C2
:1042F000FFF7B2F92500F7E700F030F801908442AB
:1043000003D835004308A342EED321003800FFF75D
:104310000FFA051EE8D0019B22009C4200D91A002A
:1043200031002800FFF7A9FF31003800FFF794F9AA
:10433000DAE7000070B50400080011001A0000233D
:10434000054D2B60FEF73AF8431C03D12B68002B78
:1043500000D0236070BDC046CC0100200B1F1B683D
:10436000181F002B01DA0B58C018704703B47146B0
:10437000490840004900095E49008E4403BC70476B
:10438000002243088B4274D303098B425FD3030A94
:104390008B4244D3030B8B4228D3030C8B420DD3A7
:1043A000FF22090212BA030C8B4202D31212090235
:1043B00065D0030B8B4219D300E0090AC30B8B4273
:1043C00001D3CB03C01A5241830B8B4201D38B0321
:1043D000C01A5241430B8B4201D34B03C01A5241C6
:1043E000030B8B4201D30B03C01A5241C30A8B4209
:1043F00001D3CB02C01A5241830A8B4201D38B02F4
:10440000C01A5241430A8B4201D34B02C01A524197
:10441000030A8B4201D30B02C01A5241CDD2C30909
:104420008B4201D3CB01C01A524183098B4201D385
:104430008B01C01A524143098B4201D34B01C01A70
:10444000524103098B4201D30B01C01A5241C308E8
:104450008B4201D3CB00C01A524183088B4201D357
:104460008B00C01A524143088B4201D34B00C01A43
:104470005241411A00D20146524110467047FFE7AF
:1044800001B50020FEF7EAF802BDC0460029F7D0CA
:1044900076E77047436F6D6D616E643A2025730057
:1044A000526573706F6E73653A20257300000000CB
:1044B0000D0A47657474696E672042617365204315
:1044C0006F756E740D00000041542B4456494437FB
:1044D0003237330D0A00000041542B5645520D0A65
:1044E0000000000041542B424155440D0A000000D9
:1044F00041542B524649440D0A00000041542B44BC
:104500005649440D0A00000041542B5246433032B4
:10451000330D0A0041542B504F57450D0A0000003F
:1045200041542B434C53530D0A0000000D0A5072A6
:1045300065737320616E6420686F6C642061207005
:104540007573682D627574746F6E20617474616325
:1045500068656420746F20504138202870696E208F
:1045600031382920746F207472616E736D69742EF6
:104570000D0000004D0A000025640D0A0000000037
:10458000537472656E6774683A310A0053747265C9
:104590006E6774683A320A00537472656E677468A5
:1045A0003A330A00537472656E6774683A340A00CD
:1045B000530A0000430A0000300A0000737175615D
:1045C00072650000310A00006261640D0A0000009B
:1045D0000D0A52657475726E65642066726F6D2087
:1045E0006D61696E28292E202053797374656D20C2
:1045F00073746F702E000000496E7465727275706E
:104600007420776974686F75742068616E646C6576
:10461000722028495352292E202053797374656DD6
:104620002073746F702E00004861726420466175BB
:104630006C7420696E746572727570742E202053CC
:10464000797374656D2073746F702E0046270008AF
:104650000427000804270008002700080A2700088C
:104660000A270008162A0008002700080A27000861
:10467000162A00080A27000800270008AA290008AF
:10468000AA290008AA290008802A00080020202062
:1046900020202020202028282828282020202020F2
:1046A00020202020202020202020202020881010C2
:1046B000101010101010101010101010100404041E
:1046C00004040404040404101010101010104141DC
:1046D00041414141010101010101010101010101CA
:1046E00001010101010101011010101010104242DE
:1046F000424242420202020202020202020202029A
:104700000202020202020202101010102000000039
:104710000000000000000000000000000000000099
:104720000000000000000000000000000000000089
:104730000000000000000000000000000000000079
:104740000000000000000000000000000000000069
:104750000000000000000000000000000000000059
:104760000000000000000000000000000000000049
:104770000000000000000000000000000000000039
:104780000000000000000000000000000000000029
:104790000000000000000000000000000000000019
:1047A0000000000000000000000000000000000009
:1047B00000000000000000000000000000000000F9
:1047C00000000000000000000000000000000000E9
:1047D00000000000000000000000000000000000D9
:1047E00000000000000000000000000000000000C9
:1047F00008000020232D302B2000686C4C006566DB
:104800006745464700303132333435363738394121
:104810004243444546003031323334353637383937
:0848200061626364656600003B
:10482800C40100200800002000000000B047000874
:10483800D047000890470008000000000000000072
:104848000000000000000000000000000000000060
:104858000000000000000000000000000000000050
:104868000000000000000000000000000000000040
:104878000000000000000000000000000000000030
:08488800000000000000000028
:04000005080000B936
:00000001FF
